{
  "_format": "hh-sol-artifact-1",
  "contractName": "PayV1",
  "sourceName": "contracts/flow_1.sol",
  "abi": [
    {
      "inputs": [
        {
          "internalType": "address",
          "name": "",
          "type": "address"
        },
        {
          "internalType": "uint256",
          "name": "",
          "type": "uint256"
        }
      ],
      "name": "EmployeeHistory",
      "outputs": [
        {
          "internalType": "uint256",
          "name": "amount",
          "type": "uint256"
        },
        {
          "internalType": "uint256",
          "name": "time",
          "type": "uint256"
        },
        {
          "internalType": "string",
          "name": "sender",
          "type": "string"
        }
      ],
      "stateMutability": "view",
      "type": "function"
    },
    {
      "inputs": [
        {
          "internalType": "address",
          "name": "",
          "type": "address"
        }
      ],
      "name": "Name",
      "outputs": [
        {
          "internalType": "string",
          "name": "",
          "type": "string"
        }
      ],
      "stateMutability": "view",
      "type": "function"
    },
    {
      "inputs": [
        {
          "internalType": "uint256",
          "name": "salary",
          "type": "uint256"
        },
        {
          "internalType": "address",
          "name": "employee",
          "type": "address"
        }
      ],
      "name": "addEmployee",
      "outputs": [],
      "stateMutability": "nonpayable",
      "type": "function"
    },
    {
      "inputs": [
        {
          "internalType": "address",
          "name": "company",
          "type": "address"
        }
      ],
      "name": "calculateTotalSalary",
      "outputs": [
        {
          "internalType": "uint256",
          "name": "",
          "type": "uint256"
        }
      ],
      "stateMutability": "view",
      "type": "function"
    },
    {
      "inputs": [
        {
          "internalType": "uint256",
          "name": "newSal",
          "type": "uint256"
        },
        {
          "internalType": "address",
          "name": "employee",
          "type": "address"
        }
      ],
      "name": "changeEmployeeSalary",
      "outputs": [],
      "stateMutability": "nonpayable",
      "type": "function"
    },
    {
      "inputs": [
        {
          "internalType": "address",
          "name": "company",
          "type": "address"
        }
      ],
      "name": "getCompanyTransactions",
      "outputs": [
        {
          "components": [
            {
              "internalType": "uint256",
              "name": "amount",
              "type": "uint256"
            },
            {
              "internalType": "uint256",
              "name": "time",
              "type": "uint256"
            },
            {
              "internalType": "string",
              "name": "sender",
              "type": "string"
            }
          ],
          "internalType": "struct PayV1.salaryStruct[]",
          "name": "",
          "type": "tuple[]"
        }
      ],
      "stateMutability": "view",
      "type": "function"
    },
    {
      "inputs": [
        {
          "internalType": "address",
          "name": "company",
          "type": "address"
        }
      ],
      "name": "getEmployeeList",
      "outputs": [
        {
          "components": [
            {
              "internalType": "address",
              "name": "wallet",
              "type": "address"
            },
            {
              "internalType": "uint256",
              "name": "salary",
              "type": "uint256"
            },
            {
              "internalType": "string",
              "name": "name",
              "type": "string"
            }
          ],
          "internalType": "struct PayV1.EMP[]",
          "name": "",
          "type": "tuple[]"
        }
      ],
      "stateMutability": "view",
      "type": "function"
    },
    {
      "inputs": [
        {
          "internalType": "address",
          "name": "employee",
          "type": "address"
        }
      ],
      "name": "getEmployeeTransactions",
      "outputs": [
        {
          "components": [
            {
              "internalType": "uint256",
              "name": "amount",
              "type": "uint256"
            },
            {
              "internalType": "uint256",
              "name": "time",
              "type": "uint256"
            },
            {
              "internalType": "string",
              "name": "sender",
              "type": "string"
            }
          ],
          "internalType": "struct PayV1.salaryStruct[]",
          "name": "",
          "type": "tuple[]"
        }
      ],
      "stateMutability": "view",
      "type": "function"
    },
    {
      "inputs": [],
      "name": "payEmployees",
      "outputs": [],
      "stateMutability": "payable",
      "type": "function"
    },
    {
      "inputs": [
        {
          "internalType": "string",
          "name": "name",
          "type": "string"
        }
      ],
      "name": "registerUser",
      "outputs": [],
      "stateMutability": "nonpayable",
      "type": "function"
    },
    {
      "inputs": [
        {
          "internalType": "address",
          "name": "employee",
          "type": "address"
        }
      ],
      "name": "removeEmployee",
      "outputs": [],
      "stateMutability": "nonpayable",
      "type": "function"
    }
  ],
  "bytecode": "0x608060405234801561001057600080fd5b5061232e806100206000396000f3fe60806040526004361061009c5760003560e01c8063a08a1b9911610064578063a08a1b99146101aa578063cd9cc6cb146101b4578063d108177a146101f1578063d89728151461021a578063fc44654d14610257578063fd7f22df146102805761009c565b80633042fbbf146100a157806341d3a503146100de5780634b5dab48146101075780634e9468a714610144578063704f1b9414610181575b600080fd5b3480156100ad57600080fd5b506100c860048036038101906100c39190611778565b6102bf565b6040516100d59190611835565b60405180910390f35b3480156100ea57600080fd5b506101056004803603810190610100919061188d565b61035f565b005b34801561011357600080fd5b5061012e60048036038101906101299190611778565b61044c565b60405161013b9190611a38565b60405180910390f35b34801561015057600080fd5b5061016b60048036038101906101669190611778565b610590565b6040516101789190611a38565b60405180910390f35b34801561018d57600080fd5b506101a860048036038101906101a39190611b8f565b6106d7565b005b6101b2610726565b005b3480156101c057600080fd5b506101db60048036038101906101d69190611778565b610c0c565b6040516101e89190611cf9565b60405180910390f35b3480156101fd57600080fd5b5061021860048036038101906102139190611778565b610ecc565b005b34801561022657600080fd5b50610241600480360381019061023c9190611778565b6112b3565b60405161024e9190611d2a565b60405180910390f35b34801561026357600080fd5b5061027e6004803603810190610279919061188d565b611420565b005b34801561028c57600080fd5b506102a760048036038101906102a29190611d45565b611600565b6040516102b693929190611d85565b60405180910390f35b600060205280600052604060002060009150905080546102de90611df2565b80601f016020809104026020016040519081016040528092919081815260200182805461030a90611df2565b80156103575780601f1061032c57610100808354040283529160200191610357565b820191906000526020600020905b81548152906001019060200180831161033a57829003601f168201915b505050505081565b600160003373ffffffffffffffffffffffffffffffffffffffff1673ffffffffffffffffffffffffffffffffffffffff16815260200190815260200160002060000160405180604001604052808373ffffffffffffffffffffffffffffffffffffffff16815260200184815250908060018154018082558091505060019003906000526020600020906002020160009091909190915060008201518160000160006101000a81548173ffffffffffffffffffffffffffffffffffffffff021916908373ffffffffffffffffffffffffffffffffffffffff1602179055506020820151816001015550505050565b6060600260008373ffffffffffffffffffffffffffffffffffffffff1673ffffffffffffffffffffffffffffffffffffffff168152602001908152602001600020805480602002602001604051908101604052809291908181526020016000905b82821015610585578382906000526020600020906003020160405180606001604052908160008201548152602001600182015481526020016002820180546104f490611df2565b80601f016020809104026020016040519081016040528092919081815260200182805461052090611df2565b801561056d5780601f106105425761010080835404028352916020019161056d565b820191906000526020600020905b81548152906001019060200180831161055057829003601f168201915b505050505081525050815260200190600101906104ad565b505050509050919050565b6060600160008373ffffffffffffffffffffffffffffffffffffffff1673ffffffffffffffffffffffffffffffffffffffff168152602001908152602001600020600101805480602002602001604051908101604052809291908181526020016000905b828210156106cc5783829060005260206000209060030201604051806060016040529081600082015481526020016001820154815260200160028201805461063b90611df2565b80601f016020809104026020016040519081016040528092919081815260200182805461066790611df2565b80156106b45780601f10610689576101008083540402835291602001916106b4565b820191906000526020600020905b81548152906001019060200180831161069757829003601f168201915b505050505081525050815260200190600101906105f4565b505050509050919050565b806000803373ffffffffffffffffffffffffffffffffffffffff1673ffffffffffffffffffffffffffffffffffffffff16815260200190815260200160002090816107229190611fcf565b5050565b6000610731336112b3565b905080341015610776576040517f08c379a000000000000000000000000000000000000000000000000000000000815260040161076d906120ed565b60405180910390fd5b6000600160003373ffffffffffffffffffffffffffffffffffffffff1673ffffffffffffffffffffffffffffffffffffffff16815260200190815260200160002060000180549050905060005b81811015610a8f576000600160003373ffffffffffffffffffffffffffffffffffffffff1673ffffffffffffffffffffffffffffffffffffffff16815260200190815260200160002060000182815481106108215761082061210d565b5b90600052602060002090600202016040518060400160405290816000820160009054906101000a900473ffffffffffffffffffffffffffffffffffffffff1673ffffffffffffffffffffffffffffffffffffffff1673ffffffffffffffffffffffffffffffffffffffff1681526020016001820154815250509050806000015173ffffffffffffffffffffffffffffffffffffffff166108fc670de0b6b3a764000083602001516108d2919061216b565b9081150290604051600060405180830381858888f193505050501580156108fd573d6000803e3d6000fd5b5060026000826000015173ffffffffffffffffffffffffffffffffffffffff1673ffffffffffffffffffffffffffffffffffffffff1681526020019081526020016000206040518060600160405280836020015181526020014281526020016000803373ffffffffffffffffffffffffffffffffffffffff1673ffffffffffffffffffffffffffffffffffffffff16815260200190815260200160002080546109a590611df2565b80601f01602080910402602001604051908101604052809291908181526020018280546109d190611df2565b8015610a1e5780601f106109f357610100808354040283529160200191610a1e565b820191906000526020600020905b815481529060010190602001808311610a0157829003601f168201915b5050505050815250908060018154018082558091505060019003906000526020600020906003020160009091909190915060008201518160000155602082015181600101556040820151816002019081610a789190611fcf565b505050508080610a87906121ad565b9150506107c3565b50600160003373ffffffffffffffffffffffffffffffffffffffff1673ffffffffffffffffffffffffffffffffffffffff16815260200190815260200160002060010160405180606001604052808481526020014281526020016000803373ffffffffffffffffffffffffffffffffffffffff1673ffffffffffffffffffffffffffffffffffffffff1681526020019081526020016000208054610b3290611df2565b80601f0160208091040260200160405190810160405280929190818152602001828054610b5e90611df2565b8015610bab5780601f10610b8057610100808354040283529160200191610bab565b820191906000526020600020905b815481529060010190602001808311610b8e57829003601f168201915b5050505050815250908060018154018082558091505060019003906000526020600020906003020160009091909190915060008201518160000155602082015181600101556040820151816002019081610c059190611fcf565b5050505050565b60606000600160008473ffffffffffffffffffffffffffffffffffffffff1673ffffffffffffffffffffffffffffffffffffffff16815260200190815260200160002060000180549050905060008167ffffffffffffffff811115610c7457610c73611a64565b5b604051908082528060200260200182016040528015610cad57816020015b610c9a6116cf565b815260200190600190039081610c925790505b50905060005b82811015610ec1576000600160008773ffffffffffffffffffffffffffffffffffffffff1673ffffffffffffffffffffffffffffffffffffffff1681526020019081526020016000206000018281548110610d1157610d1061210d565b5b90600052602060002090600202016040518060400160405290816000820160009054906101000a900473ffffffffffffffffffffffffffffffffffffffff1673ffffffffffffffffffffffffffffffffffffffff1673ffffffffffffffffffffffffffffffffffffffff16815260200160018201548152505090506040518060600160405280826000015173ffffffffffffffffffffffffffffffffffffffff16815260200182602001518152602001600080846000015173ffffffffffffffffffffffffffffffffffffffff1673ffffffffffffffffffffffffffffffffffffffff1681526020019081526020016000208054610e0e90611df2565b80601f0160208091040260200160405190810160405280929190818152602001828054610e3a90611df2565b8015610e875780601f10610e5c57610100808354040283529160200191610e87565b820191906000526020600020905b815481529060010190602001808311610e6a57829003601f168201915b5050505050815250838381518110610ea257610ea161210d565b5b6020026020010181905250508080610eb9906121ad565b915050610cb3565b508092505050919050565b60008080600160003373ffffffffffffffffffffffffffffffffffffffff1673ffffffffffffffffffffffffffffffffffffffff16815260200190815260200160002060000180549050905060005b81811015610ffa578473ffffffffffffffffffffffffffffffffffffffff16600160003373ffffffffffffffffffffffffffffffffffffffff1673ffffffffffffffffffffffffffffffffffffffff1681526020019081526020016000206000018281548110610f8e57610f8d61210d565b5b906000526020600020906002020160000160009054906101000a900473ffffffffffffffffffffffffffffffffffffffff1673ffffffffffffffffffffffffffffffffffffffff1603610fe75760019350809250610ffa565b8080610ff2906121ad565b915050610f1b565b508261103b576040517f08c379a000000000000000000000000000000000000000000000000000000000815260040161103290612241565b60405180910390fd5b600160003373ffffffffffffffffffffffffffffffffffffffff1673ffffffffffffffffffffffffffffffffffffffff168152602001908152602001600020600001828154811061108f5761108e61210d565b5b9060005260206000209060020201600080820160006101000a81549073ffffffffffffffffffffffffffffffffffffffff021916905560018201600090555050600160003373ffffffffffffffffffffffffffffffffffffffff1673ffffffffffffffffffffffffffffffffffffffff16815260200190815260200160002060000160018261111e9190612261565b8154811061112f5761112e61210d565b5b9060005260206000209060020201600160003373ffffffffffffffffffffffffffffffffffffffff1673ffffffffffffffffffffffffffffffffffffffff16815260200190815260200160002060000183815481106111915761119061210d565b5b90600052602060002090600202016000820160009054906101000a900473ffffffffffffffffffffffffffffffffffffffff168160000160006101000a81548173ffffffffffffffffffffffffffffffffffffffff021916908373ffffffffffffffffffffffffffffffffffffffff16021790555060018201548160010155905050600160003373ffffffffffffffffffffffffffffffffffffffff1673ffffffffffffffffffffffffffffffffffffffff16815260200190815260200160002060000180548061126557611264612295565b5b6001900381819060005260206000209060020201600080820160006101000a81549073ffffffffffffffffffffffffffffffffffffffff021916905560018201600090555050905550505050565b6000806000600160008573ffffffffffffffffffffffffffffffffffffffff1673ffffffffffffffffffffffffffffffffffffffff16815260200190815260200160002060000180549050905060005b81811015611415576000600160003373ffffffffffffffffffffffffffffffffffffffff1673ffffffffffffffffffffffffffffffffffffffff16815260200190815260200160002060000182815481106113615761136061210d565b5b90600052602060002090600202016040518060400160405290816000820160009054906101000a900473ffffffffffffffffffffffffffffffffffffffff1673ffffffffffffffffffffffffffffffffffffffff1673ffffffffffffffffffffffffffffffffffffffff1681526020016001820154815250509050670de0b6b3a764000081602001516113f4919061216b565b846113ff91906122c4565b935050808061140d906121ad565b915050611303565b508192505050919050565b60008080600160003373ffffffffffffffffffffffffffffffffffffffff1673ffffffffffffffffffffffffffffffffffffffff16815260200190815260200160002060000180549050905060005b8181101561154e578473ffffffffffffffffffffffffffffffffffffffff16600160003373ffffffffffffffffffffffffffffffffffffffff1673ffffffffffffffffffffffffffffffffffffffff16815260200190815260200160002060000182815481106114e2576114e161210d565b5b906000526020600020906002020160000160009054906101000a900473ffffffffffffffffffffffffffffffffffffffff1673ffffffffffffffffffffffffffffffffffffffff160361153b576001935080925061154e565b8080611546906121ad565b91505061146f565b508261158f576040517f08c379a000000000000000000000000000000000000000000000000000000000815260040161158690612241565b60405180910390fd5b84600160003373ffffffffffffffffffffffffffffffffffffffff1673ffffffffffffffffffffffffffffffffffffffff16815260200190815260200160002060000183815481106115e4576115e361210d565b5b9060005260206000209060020201600101819055505050505050565b6002602052816000526040600020818154811061161c57600080fd5b90600052602060002090600302016000915091505080600001549080600101549080600201805461164c90611df2565b80601f016020809104026020016040519081016040528092919081815260200182805461167890611df2565b80156116c55780601f1061169a576101008083540402835291602001916116c5565b820191906000526020600020905b8154815290600101906020018083116116a857829003601f168201915b5050505050905083565b6040518060600160405280600073ffffffffffffffffffffffffffffffffffffffff16815260200160008152602001606081525090565b6000604051905090565b600080fd5b600080fd5b600073ffffffffffffffffffffffffffffffffffffffff82169050919050565b60006117458261171a565b9050919050565b6117558161173a565b811461176057600080fd5b50565b6000813590506117728161174c565b92915050565b60006020828403121561178e5761178d611710565b5b600061179c84828501611763565b91505092915050565b600081519050919050565b600082825260208201905092915050565b60005b838110156117df5780820151818401526020810190506117c4565b60008484015250505050565b6000601f19601f8301169050919050565b6000611807826117a5565b61181181856117b0565b93506118218185602086016117c1565b61182a816117eb565b840191505092915050565b6000602082019050818103600083015261184f81846117fc565b905092915050565b6000819050919050565b61186a81611857565b811461187557600080fd5b50565b60008135905061188781611861565b92915050565b600080604083850312156118a4576118a3611710565b5b60006118b285828601611878565b92505060206118c385828601611763565b9150509250929050565b600081519050919050565b600082825260208201905092915050565b6000819050602082019050919050565b61190281611857565b82525050565b600082825260208201905092915050565b6000611924826117a5565b61192e8185611908565b935061193e8185602086016117c1565b611947816117eb565b840191505092915050565b600060608301600083015161196a60008601826118f9565b50602083015161197d60208601826118f9565b50604083015184820360408601526119958282611919565b9150508091505092915050565b60006119ae8383611952565b905092915050565b6000602082019050919050565b60006119ce826118cd565b6119d881856118d8565b9350836020820285016119ea856118e9565b8060005b85811015611a265784840389528151611a0785826119a2565b9450611a12836119b6565b925060208a019950506001810190506119ee565b50829750879550505050505092915050565b60006020820190508181036000830152611a5281846119c3565b905092915050565b600080fd5b600080fd5b7f4e487b7100000000000000000000000000000000000000000000000000000000600052604160045260246000fd5b611a9c826117eb565b810181811067ffffffffffffffff82111715611abb57611aba611a64565b5b80604052505050565b6000611ace611706565b9050611ada8282611a93565b919050565b600067ffffffffffffffff821115611afa57611af9611a64565b5b611b03826117eb565b9050602081019050919050565b82818337600083830152505050565b6000611b32611b2d84611adf565b611ac4565b905082815260208101848484011115611b4e57611b4d611a5f565b5b611b59848285611b10565b509392505050565b600082601f830112611b7657611b75611a5a565b5b8135611b86848260208601611b1f565b91505092915050565b600060208284031215611ba557611ba4611710565b5b600082013567ffffffffffffffff811115611bc357611bc2611715565b5b611bcf84828501611b61565b91505092915050565b600081519050919050565b600082825260208201905092915050565b6000819050602082019050919050565b611c0d8161173a565b82525050565b6000606083016000830151611c2b6000860182611c04565b506020830151611c3e60208601826118f9565b5060408301518482036040860152611c568282611919565b9150508091505092915050565b6000611c6f8383611c13565b905092915050565b6000602082019050919050565b6000611c8f82611bd8565b611c998185611be3565b935083602082028501611cab85611bf4565b8060005b85811015611ce75784840389528151611cc88582611c63565b9450611cd383611c77565b925060208a01995050600181019050611caf565b50829750879550505050505092915050565b60006020820190508181036000830152611d138184611c84565b905092915050565b611d2481611857565b82525050565b6000602082019050611d3f6000830184611d1b565b92915050565b60008060408385031215611d5c57611d5b611710565b5b6000611d6a85828601611763565b9250506020611d7b85828601611878565b9150509250929050565b6000606082019050611d9a6000830186611d1b565b611da76020830185611d1b565b8181036040830152611db981846117fc565b9050949350505050565b7f4e487b7100000000000000000000000000000000000000000000000000000000600052602260045260246000fd5b60006002820490506001821680611e0a57607f821691505b602082108103611e1d57611e1c611dc3565b5b50919050565b60008190508160005260206000209050919050565b60006020601f8301049050919050565b600082821b905092915050565b600060088302611e857fffffffffffffffffffffffffffffffffffffffffffffffffffffffffffffffff82611e48565b611e8f8683611e48565b95508019841693508086168417925050509392505050565b6000819050919050565b6000611ecc611ec7611ec284611857565b611ea7565b611857565b9050919050565b6000819050919050565b611ee683611eb1565b611efa611ef282611ed3565b848454611e55565b825550505050565b600090565b611f0f611f02565b611f1a818484611edd565b505050565b5b81811015611f3e57611f33600082611f07565b600181019050611f20565b5050565b601f821115611f8357611f5481611e23565b611f5d84611e38565b81016020851015611f6c578190505b611f80611f7885611e38565b830182611f1f565b50505b505050565b600082821c905092915050565b6000611fa660001984600802611f88565b1980831691505092915050565b6000611fbf8383611f95565b9150826002028217905092915050565b611fd8826117a5565b67ffffffffffffffff811115611ff157611ff0611a64565b5b611ffb8254611df2565b612006828285611f42565b600060209050601f8311600181146120395760008415612027578287015190505b6120318582611fb3565b865550612099565b601f19841661204786611e23565b60005b8281101561206f5784890151825560018201915060208501945060208101905061204a565b8683101561208c5784890151612088601f891682611f95565b8355505b6001600288020188555050505b505050505050565b7f706c656173652073656e642074686520726967687420616d6f756e7400000000600082015250565b60006120d7601c836117b0565b91506120e2826120a1565b602082019050919050565b60006020820190508181036000830152612106816120ca565b9050919050565b7f4e487b7100000000000000000000000000000000000000000000000000000000600052603260045260246000fd5b7f4e487b7100000000000000000000000000000000000000000000000000000000600052601160045260246000fd5b600061217682611857565b915061218183611857565b925082820261218f81611857565b915082820484148315176121a6576121a561213c565b5b5092915050565b60006121b882611857565b91507fffffffffffffffffffffffffffffffffffffffffffffffffffffffffffffffff82036121ea576121e961213c565b5b600182019050919050565b7f456d706c6f796565206e6f7420666f756e640000000000000000000000000000600082015250565b600061222b6012836117b0565b9150612236826121f5565b602082019050919050565b6000602082019050818103600083015261225a8161221e565b9050919050565b600061226c82611857565b915061227783611857565b925082820390508181111561228f5761228e61213c565b5b92915050565b7f4e487b7100000000000000000000000000000000000000000000000000000000600052603160045260246000fd5b60006122cf82611857565b91506122da83611857565b92508282019050808211156122f2576122f161213c565b5b9291505056fea2646970667358221220db15a1c774e8ca9a4e8cf14bcc6f5c4108a80781a2ab6045c24d4510aee92f0064736f6c63430008130033",
  "linkReferences": {},
  "deployedLinkReferences": {}
}